{
  "contractName": "Staking_Dapp",
  "abi": [
    {
      "inputs": [
        {
          "internalType": "contract Token",
          "name": "_dummyToken",
          "type": "address"
        },
        {
          "internalType": "contract Tether",
          "name": "_tetherToken",
          "type": "address"
        }
      ],
      "stateMutability": "nonpayable",
      "type": "constructor"
    },
    {
      "inputs": [],
      "name": "dummy_token",
      "outputs": [
        {
          "internalType": "contract Token",
          "name": "",
          "type": "address"
        }
      ],
      "stateMutability": "view",
      "type": "function",
      "constant": true
    },
    {
      "inputs": [
        {
          "internalType": "address",
          "name": "",
          "type": "address"
        }
      ],
      "name": "hasStaked",
      "outputs": [
        {
          "internalType": "bool",
          "name": "",
          "type": "bool"
        }
      ],
      "stateMutability": "view",
      "type": "function",
      "constant": true
    },
    {
      "inputs": [
        {
          "internalType": "address",
          "name": "",
          "type": "address"
        }
      ],
      "name": "isStaked",
      "outputs": [
        {
          "internalType": "bool",
          "name": "",
          "type": "bool"
        }
      ],
      "stateMutability": "view",
      "type": "function",
      "constant": true
    },
    {
      "inputs": [],
      "name": "name",
      "outputs": [
        {
          "internalType": "string",
          "name": "",
          "type": "string"
        }
      ],
      "stateMutability": "view",
      "type": "function",
      "constant": true
    },
    {
      "inputs": [],
      "name": "owner",
      "outputs": [
        {
          "internalType": "address",
          "name": "",
          "type": "address"
        }
      ],
      "stateMutability": "view",
      "type": "function",
      "constant": true
    },
    {
      "inputs": [
        {
          "internalType": "uint256",
          "name": "",
          "type": "uint256"
        }
      ],
      "name": "stakers",
      "outputs": [
        {
          "internalType": "address",
          "name": "",
          "type": "address"
        }
      ],
      "stateMutability": "view",
      "type": "function",
      "constant": true
    },
    {
      "inputs": [
        {
          "internalType": "address",
          "name": "",
          "type": "address"
        }
      ],
      "name": "stakingBalance",
      "outputs": [
        {
          "internalType": "uint256",
          "name": "",
          "type": "uint256"
        }
      ],
      "stateMutability": "view",
      "type": "function",
      "constant": true
    },
    {
      "inputs": [],
      "name": "tether_token",
      "outputs": [
        {
          "internalType": "contract Tether",
          "name": "",
          "type": "address"
        }
      ],
      "stateMutability": "view",
      "type": "function",
      "constant": true
    },
    {
      "inputs": [
        {
          "internalType": "uint256",
          "name": "_amount",
          "type": "uint256"
        }
      ],
      "name": "stakeTokens",
      "outputs": [],
      "stateMutability": "nonpayable",
      "type": "function"
    },
    {
      "inputs": [],
      "name": "unstakingTokens",
      "outputs": [],
      "stateMutability": "nonpayable",
      "type": "function"
    },
    {
      "inputs": [],
      "name": "issueToken",
      "outputs": [],
      "stateMutability": "nonpayable",
      "type": "function"
    }
  ],
  "bytecode": "0x60806040526040518060400160405280600c81526020017f5374616b696e6720446170700000000000000000000000000000000000000000815250600090805190602001906200005192919062000150565b503480156200005f57600080fd5b5060405162001424380380620014248339818101604052810190620000859190620002c3565b81600260006101000a81548173ffffffffffffffffffffffffffffffffffffffff021916908373ffffffffffffffffffffffffffffffffffffffff16021790555080600360006101000a81548173ffffffffffffffffffffffffffffffffffffffff021916908373ffffffffffffffffffffffffffffffffffffffff16021790555033600160006101000a81548173ffffffffffffffffffffffffffffffffffffffff021916908373ffffffffffffffffffffffffffffffffffffffff16021790555050506200036e565b8280546200015e9062000339565b90600052602060002090601f016020900481019282620001825760008555620001ce565b82601f106200019d57805160ff1916838001178555620001ce565b82800160010185558215620001ce579182015b82811115620001cd578251825591602001919060010190620001b0565b5b509050620001dd9190620001e1565b5090565b5b80821115620001fc576000816000905550600101620001e2565b5090565b600080fd5b600073ffffffffffffffffffffffffffffffffffffffff82169050919050565b6000620002328262000205565b9050919050565b6000620002468262000225565b9050919050565b620002588162000239565b81146200026457600080fd5b50565b60008151905062000278816200024d565b92915050565b60006200028b8262000225565b9050919050565b6200029d816200027e565b8114620002a957600080fd5b50565b600081519050620002bd8162000292565b92915050565b60008060408385031215620002dd57620002dc62000200565b5b6000620002ed8582860162000267565b92505060206200030085828601620002ac565b9150509250929050565b7f4e487b7100000000000000000000000000000000000000000000000000000000600052602260045260246000fd5b600060028204905060018216806200035257607f821691505b6020821081036200036857620003676200030a565b5b50919050565b6110a6806200037e6000396000f3fe608060405234801561001057600080fd5b50600436106100a95760003560e01c806389c95e981161007157806389c95e98146101525780638da5cb5b14610170578063a1ee8c781461018e578063c93c8f3414610198578063f9075fc6146101c8578063fd5e6dd1146101e6576100a9565b806306fdde03146100ae57806333f20786146100cc57806345bc78ab146100d65780636177fd18146101065780637547c7a314610136575b600080fd5b6100b6610216565b6040516100c39190610a9c565b60405180910390f35b6100d46102a4565b005b6100f060048036038101906100eb9190610b21565b61046c565b6040516100fd9190610b67565b60405180910390f35b610120600480360381019061011b9190610b21565b610484565b60405161012d9190610b9d565b60405180910390f35b610150600480360381019061014b9190610be4565b6104a4565b005b61015a610748565b6040516101679190610c70565b60405180910390f35b61017861076e565b6040516101859190610c9a565b60405180910390f35b610196610794565b005b6101b260048036038101906101ad9190610b21565b61097e565b6040516101bf9190610b9d565b60405180910390f35b6101d061099e565b6040516101dd9190610cd6565b60405180910390f35b61020060048036038101906101fb9190610be4565b6109c4565b60405161020d9190610c9a565b60405180910390f35b6000805461022390610d20565b80601f016020809104026020016040519081016040528092919081815260200182805461024f90610d20565b801561029c5780601f106102715761010080835404028352916020019161029c565b820191906000526020600020905b81548152906001019060200180831161027f57829003601f168201915b505050505081565b6000600560003373ffffffffffffffffffffffffffffffffffffffff1673ffffffffffffffffffffffffffffffffffffffff1681526020019081526020016000205490506000811161032b576040517f08c379a000000000000000000000000000000000000000000000000000000000815260040161032290610d9d565b60405180910390fd5b6000600560003373ffffffffffffffffffffffffffffffffffffffff1673ffffffffffffffffffffffffffffffffffffffff168152602001908152602001600020819055506000600760003373ffffffffffffffffffffffffffffffffffffffff1673ffffffffffffffffffffffffffffffffffffffff16815260200190815260200160002060006101000a81548160ff021916908315150217905550600360009054906101000a900473ffffffffffffffffffffffffffffffffffffffff1673ffffffffffffffffffffffffffffffffffffffff1663a9059cbb33836040518363ffffffff1660e01b8152600401610425929190610dbd565b6020604051808303816000875af1158015610444573d6000803e3d6000fd5b505050506040513d601f19601f820116820180604052508101906104689190610e12565b5050565b60056020528060005260406000206000915090505481565b60076020528060005260406000206000915054906101000a900460ff1681565b600081116104e7576040517f08c379a00000000000000000000000000000000000000000000000000000000081526004016104de90610eb1565b60405180910390fd5b600360009054906101000a900473ffffffffffffffffffffffffffffffffffffffff1673ffffffffffffffffffffffffffffffffffffffff166323b872dd3330846040518463ffffffff1660e01b815260040161054693929190610ed1565b6020604051808303816000875af1158015610565573d6000803e3d6000fd5b505050506040513d601f19601f820116820180604052508101906105899190610e12565b5080600560003373ffffffffffffffffffffffffffffffffffffffff1673ffffffffffffffffffffffffffffffffffffffff16815260200190815260200160002060008282546105d99190610f37565b92505081905550600660003373ffffffffffffffffffffffffffffffffffffffff1673ffffffffffffffffffffffffffffffffffffffff16815260200190815260200160002060009054906101000a900460ff16610695576004339080600181540180825580915050600190039060005260206000200160009091909190916101000a81548173ffffffffffffffffffffffffffffffffffffffff021916908373ffffffffffffffffffffffffffffffffffffffff1602179055505b6001600760003373ffffffffffffffffffffffffffffffffffffffff1673ffffffffffffffffffffffffffffffffffffffff16815260200190815260200160002060006101000a81548160ff0219169083151502179055506001600660003373ffffffffffffffffffffffffffffffffffffffff1673ffffffffffffffffffffffffffffffffffffffff16815260200190815260200160002060006101000a81548160ff02191690831515021790555050565b600360009054906101000a900473ffffffffffffffffffffffffffffffffffffffff1681565b600160009054906101000a900473ffffffffffffffffffffffffffffffffffffffff1681565b600160009054906101000a900473ffffffffffffffffffffffffffffffffffffffff1673ffffffffffffffffffffffffffffffffffffffff163373ffffffffffffffffffffffffffffffffffffffff1614610824576040517f08c379a000000000000000000000000000000000000000000000000000000000815260040161081b90610fd9565b60405180910390fd5b60005b60048054905081101561097b5760006004828154811061084a57610849610ff9565b5b9060005260206000200160009054906101000a900473ffffffffffffffffffffffffffffffffffffffff1690506000600560008373ffffffffffffffffffffffffffffffffffffffff1673ffffffffffffffffffffffffffffffffffffffff168152602001908152602001600020549050600081111561096657600260009054906101000a900473ffffffffffffffffffffffffffffffffffffffff1673ffffffffffffffffffffffffffffffffffffffff1663a9059cbb83836040518363ffffffff1660e01b8152600401610921929190610dbd565b6020604051808303816000875af1158015610940573d6000803e3d6000fd5b505050506040513d601f19601f820116820180604052508101906109649190610e12565b505b5050808061097390611028565b915050610827565b50565b60066020528060005260406000206000915054906101000a900460ff1681565b600260009054906101000a900473ffffffffffffffffffffffffffffffffffffffff1681565b600481815481106109d457600080fd5b906000526020600020016000915054906101000a900473ffffffffffffffffffffffffffffffffffffffff1681565b600081519050919050565b600082825260208201905092915050565b60005b83811015610a3d578082015181840152602081019050610a22565b83811115610a4c576000848401525b50505050565b6000601f19601f8301169050919050565b6000610a6e82610a03565b610a788185610a0e565b9350610a88818560208601610a1f565b610a9181610a52565b840191505092915050565b60006020820190508181036000830152610ab68184610a63565b905092915050565b600080fd5b600073ffffffffffffffffffffffffffffffffffffffff82169050919050565b6000610aee82610ac3565b9050919050565b610afe81610ae3565b8114610b0957600080fd5b50565b600081359050610b1b81610af5565b92915050565b600060208284031215610b3757610b36610abe565b5b6000610b4584828501610b0c565b91505092915050565b6000819050919050565b610b6181610b4e565b82525050565b6000602082019050610b7c6000830184610b58565b92915050565b60008115159050919050565b610b9781610b82565b82525050565b6000602082019050610bb26000830184610b8e565b92915050565b610bc181610b4e565b8114610bcc57600080fd5b50565b600081359050610bde81610bb8565b92915050565b600060208284031215610bfa57610bf9610abe565b5b6000610c0884828501610bcf565b91505092915050565b6000819050919050565b6000610c36610c31610c2c84610ac3565b610c11565b610ac3565b9050919050565b6000610c4882610c1b565b9050919050565b6000610c5a82610c3d565b9050919050565b610c6a81610c4f565b82525050565b6000602082019050610c856000830184610c61565b92915050565b610c9481610ae3565b82525050565b6000602082019050610caf6000830184610c8b565b92915050565b6000610cc082610c3d565b9050919050565b610cd081610cb5565b82525050565b6000602082019050610ceb6000830184610cc7565b92915050565b7f4e487b7100000000000000000000000000000000000000000000000000000000600052602260045260246000fd5b60006002820490506001821680610d3857607f821691505b602082108103610d4b57610d4a610cf1565b5b50919050565b7f4e6f207374616b656420746f6b656e732e000000000000000000000000000000600082015250565b6000610d87601183610a0e565b9150610d9282610d51565b602082019050919050565b60006020820190508181036000830152610db681610d7a565b9050919050565b6000604082019050610dd26000830185610c8b565b610ddf6020830184610b58565b9392505050565b610def81610b82565b8114610dfa57600080fd5b50565b600081519050610e0c81610de6565b92915050565b600060208284031215610e2857610e27610abe565b5b6000610e3684828501610dfd565b91505092915050565b7f5374616b696e6720616d6f756e74206d7573742062652067726561746572207460008201527f68616e20302e0000000000000000000000000000000000000000000000000000602082015250565b6000610e9b602683610a0e565b9150610ea682610e3f565b604082019050919050565b60006020820190508181036000830152610eca81610e8e565b9050919050565b6000606082019050610ee66000830186610c8b565b610ef36020830185610c8b565b610f006040830184610b58565b949350505050565b7f4e487b7100000000000000000000000000000000000000000000000000000000600052601160045260246000fd5b6000610f4282610b4e565b9150610f4d83610b4e565b9250827fffffffffffffffffffffffffffffffffffffffffffffffffffffffffffffffff03821115610f8257610f81610f08565b5b828201905092915050565b7f4f6e6c7920746865206f776e65722063616e20697373756520746f6b656e7300600082015250565b6000610fc3601f83610a0e565b9150610fce82610f8d565b602082019050919050565b60006020820190508181036000830152610ff281610fb6565b9050919050565b7f4e487b7100000000000000000000000000000000000000000000000000000000600052603260045260246000fd5b600061103382610b4e565b91507fffffffffffffffffffffffffffffffffffffffffffffffffffffffffffffffff820361106557611064610f08565b5b60018201905091905056fea26469706673582212201770dd0991f6c4b32705f2e754649e6f2a835682a4c32790ba0897137cbd306d64736f6c634300080d0033",
  "immutableReferences": {},
  "source": "// SPDX-License-Identifier: MIT\npragma solidity >=0.4.22 <0.9.0;\n\nimport \"./Token.sol\";\nimport \"./Tether.sol\";\n\ncontract Staking_Dapp{\n    string public name = \"Staking Dapp\";\n    address public owner;\n\n    Token public dummy_token;\n    Tether public tether_token;\n\n    address[] public stakers;\n    mapping(address => uint) public stakingBalance;\n    mapping(address => bool) public hasStaked;\n    mapping(address => bool) public isStaked;\n\n    constructor(Token _dummyToken, Tether _tetherToken) {\n        dummy_token = _dummyToken;\n        tether_token = _tetherToken;\n        owner = msg.sender;\n    }\n\n    function stakeTokens(uint _amount) public {\n        require(_amount > 0, \"Staking amount must be greater than 0.\");\n\n        tether_token.transferFrom(msg.sender, address(this), _amount);\n        stakingBalance[msg.sender] += _amount;\n\n        if(!hasStaked[msg.sender]) {\n            stakers.push(msg.sender);\n        }\n\n        isStaked[msg.sender] = true;\n        hasStaked[msg.sender] = true;\n    }\n\n    function unstakingTokens() public {\n        uint balance = stakingBalance[msg.sender];\n        require(balance > 0, \"No staked tokens.\");\n\n        stakingBalance[msg.sender] = 0;\n        isStaked[msg.sender] = false;\n        tether_token.transfer(msg.sender, balance);\n        \n    }\n\n    function issueToken() public{\n        require(msg.sender == owner, \"Only the owner can issue tokens\");\n\n        for (uint i = 0; i < stakers.length; i++){\n            address recipient = stakers[i];\n            uint recipientBalance = stakingBalance[recipient];\n\n            if (recipientBalance > 0) {\n                dummy_token.transfer(recipient, recipientBalance);\n            }\n        }\n    }\n\n}",
  "sourcePath": "/Users/harshit/Documents/Cryptocurrencies/Staking App/staking_app/src/contracts/Staking_Dapp.sol",
  "compiler": {
    "name": "solc",
    "version": "0.8.13+commit.abaa5c0e.Emscripten.clang"
  },
  "schemaVersion": "3.4.7",
  "updatedAt": "2022-07-11T08:33:49.185Z",
  "networkType": "ethereum",
  "devdoc": {
    "kind": "dev",
    "methods": {},
    "version": 1
  },
  "userdoc": {
    "kind": "user",
    "methods": {},
    "version": 1
  }
}