{
  "contractName": "Token",
  "abi": [
    {
      "inputs": [],
      "stateMutability": "nonpayable",
      "type": "constructor"
    },
    {
      "anonymous": false,
      "inputs": [
        {
          "indexed": true,
          "internalType": "address",
          "name": "_owner",
          "type": "address"
        },
        {
          "indexed": true,
          "internalType": "address",
          "name": "_spender",
          "type": "address"
        },
        {
          "indexed": false,
          "internalType": "uint256",
          "name": "_value",
          "type": "uint256"
        }
      ],
      "name": "Approve",
      "type": "event"
    },
    {
      "anonymous": false,
      "inputs": [
        {
          "indexed": true,
          "internalType": "address",
          "name": "_from",
          "type": "address"
        },
        {
          "indexed": true,
          "internalType": "address",
          "name": "_to",
          "type": "address"
        },
        {
          "indexed": false,
          "internalType": "uint256",
          "name": "_value",
          "type": "uint256"
        }
      ],
      "name": "Transfer",
      "type": "event"
    },
    {
      "inputs": [
        {
          "internalType": "address",
          "name": "",
          "type": "address"
        },
        {
          "internalType": "address",
          "name": "",
          "type": "address"
        }
      ],
      "name": "allowance",
      "outputs": [
        {
          "internalType": "uint256",
          "name": "",
          "type": "uint256"
        }
      ],
      "stateMutability": "view",
      "type": "function",
      "constant": true
    },
    {
      "inputs": [
        {
          "internalType": "address",
          "name": "",
          "type": "address"
        }
      ],
      "name": "balance",
      "outputs": [
        {
          "internalType": "uint256",
          "name": "",
          "type": "uint256"
        }
      ],
      "stateMutability": "view",
      "type": "function",
      "constant": true
    },
    {
      "inputs": [],
      "name": "decimal",
      "outputs": [
        {
          "internalType": "uint256",
          "name": "",
          "type": "uint256"
        }
      ],
      "stateMutability": "view",
      "type": "function",
      "constant": true
    },
    {
      "inputs": [],
      "name": "name",
      "outputs": [
        {
          "internalType": "string",
          "name": "",
          "type": "string"
        }
      ],
      "stateMutability": "view",
      "type": "function",
      "constant": true
    },
    {
      "inputs": [],
      "name": "symbol",
      "outputs": [
        {
          "internalType": "string",
          "name": "",
          "type": "string"
        }
      ],
      "stateMutability": "view",
      "type": "function",
      "constant": true
    },
    {
      "inputs": [],
      "name": "totalSupply",
      "outputs": [
        {
          "internalType": "uint256",
          "name": "",
          "type": "uint256"
        }
      ],
      "stateMutability": "view",
      "type": "function",
      "constant": true
    },
    {
      "inputs": [
        {
          "internalType": "address",
          "name": "_to",
          "type": "address"
        },
        {
          "internalType": "uint256",
          "name": "_value",
          "type": "uint256"
        }
      ],
      "name": "transfer",
      "outputs": [
        {
          "internalType": "bool",
          "name": "",
          "type": "bool"
        }
      ],
      "stateMutability": "nonpayable",
      "type": "function"
    },
    {
      "inputs": [
        {
          "internalType": "address",
          "name": "_from",
          "type": "address"
        },
        {
          "internalType": "address",
          "name": "_to",
          "type": "address"
        },
        {
          "internalType": "uint256",
          "name": "_value",
          "type": "uint256"
        }
      ],
      "name": "transferFrom",
      "outputs": [
        {
          "internalType": "bool",
          "name": "",
          "type": "bool"
        }
      ],
      "stateMutability": "nonpayable",
      "type": "function"
    }
  ],
  "bytecode": "0x60806040526040518060400160405280600b81526020017f64756d6d7920746f6b656e00000000000000000000000000000000000000000081525060009080519060200190620000519291906200010d565b506040518060400160405280600381526020017f44554d0000000000000000000000000000000000000000000000000000000000815250600190805190602001906200009f9291906200010d565b5069d3c21bcecceda10000006002556012600355348015620000c057600080fd5b50600254600460003373ffffffffffffffffffffffffffffffffffffffff1673ffffffffffffffffffffffffffffffffffffffff1681526020019081526020016000208190555062000221565b8280546200011b90620001ec565b90600052602060002090601f0160209004810192826200013f57600085556200018b565b82601f106200015a57805160ff19168380011785556200018b565b828001600101855582156200018b579182015b828111156200018a5782518255916020019190600101906200016d565b5b5090506200019a91906200019e565b5090565b5b80821115620001b95760008160009055506001016200019f565b5090565b7f4e487b7100000000000000000000000000000000000000000000000000000000600052602260045260246000fd5b600060028204905060018216806200020557607f821691505b6020821081036200021b576200021a620001bd565b5b50919050565b610ad880620002316000396000f3fe608060405234801561001057600080fd5b50600436106100885760003560e01c806395d89b411161005b57806395d89b4114610117578063a9059cbb14610135578063dd62ed3e14610165578063e3d670d71461019557610088565b806306fdde031461008d57806318160ddd146100ab57806323b872dd146100c957806376809ce3146100f9575b600080fd5b6100956101c5565b6040516100a29190610702565b60405180910390f35b6100b3610253565b6040516100c0919061073d565b60405180910390f35b6100e360048036038101906100de91906107e7565b610259565b6040516100f09190610855565b60405180910390f35b6101016103f9565b60405161010e919061073d565b60405180910390f35b61011f6103ff565b60405161012c9190610702565b60405180910390f35b61014f600480360381019061014a9190610870565b61048d565b60405161015c9190610855565b60405180910390f35b61017f600480360381019061017a91906108b0565b61062c565b60405161018c919061073d565b60405180910390f35b6101af60048036038101906101aa91906108f0565b610651565b6040516101bc919061073d565b60405180910390f35b600080546101d29061094c565b80601f01602080910402602001604051908101604052809291908181526020018280546101fe9061094c565b801561024b5780601f106102205761010080835404028352916020019161024b565b820191906000526020600020905b81548152906001019060200180831161022e57829003601f168201915b505050505081565b60025481565b600081600460008673ffffffffffffffffffffffffffffffffffffffff1673ffffffffffffffffffffffffffffffffffffffff1681526020019081526020016000205410156102dd576040517f08c379a00000000000000000000000000000000000000000000000000000000081526004016102d4906109c9565b60405180910390fd5b81600460008673ffffffffffffffffffffffffffffffffffffffff1673ffffffffffffffffffffffffffffffffffffffff168152602001908152602001600020600082825461032c9190610a18565b9250508190555081600460008573ffffffffffffffffffffffffffffffffffffffff1673ffffffffffffffffffffffffffffffffffffffff16815260200190815260200160002060008282546103829190610a4c565b925050819055508273ffffffffffffffffffffffffffffffffffffffff168473ffffffffffffffffffffffffffffffffffffffff167fddf252ad1be2c89b69c2b068fc378daa952ba7f163c4a11628f55a4df523b3ef846040516103e6919061073d565b60405180910390a3600190509392505050565b60035481565b6001805461040c9061094c565b80601f01602080910402602001604051908101604052809291908181526020018280546104389061094c565b80156104855780601f1061045a57610100808354040283529160200191610485565b820191906000526020600020905b81548152906001019060200180831161046857829003601f168201915b505050505081565b600081600460003373ffffffffffffffffffffffffffffffffffffffff1673ffffffffffffffffffffffffffffffffffffffff168152602001908152602001600020541015610511576040517f08c379a0000000000000000000000000000000000000000000000000000000008152600401610508906109c9565b60405180910390fd5b81600460003373ffffffffffffffffffffffffffffffffffffffff1673ffffffffffffffffffffffffffffffffffffffff16815260200190815260200160002060008282546105609190610a18565b9250508190555081600460008573ffffffffffffffffffffffffffffffffffffffff1673ffffffffffffffffffffffffffffffffffffffff16815260200190815260200160002060008282546105b69190610a4c565b925050819055508273ffffffffffffffffffffffffffffffffffffffff163373ffffffffffffffffffffffffffffffffffffffff167fddf252ad1be2c89b69c2b068fc378daa952ba7f163c4a11628f55a4df523b3ef8460405161061a919061073d565b60405180910390a36001905092915050565b6005602052816000526040600020602052806000526040600020600091509150505481565b60046020528060005260406000206000915090505481565b600081519050919050565b600082825260208201905092915050565b60005b838110156106a3578082015181840152602081019050610688565b838111156106b2576000848401525b50505050565b6000601f19601f8301169050919050565b60006106d482610669565b6106de8185610674565b93506106ee818560208601610685565b6106f7816106b8565b840191505092915050565b6000602082019050818103600083015261071c81846106c9565b905092915050565b6000819050919050565b61073781610724565b82525050565b6000602082019050610752600083018461072e565b92915050565b600080fd5b600073ffffffffffffffffffffffffffffffffffffffff82169050919050565b60006107888261075d565b9050919050565b6107988161077d565b81146107a357600080fd5b50565b6000813590506107b58161078f565b92915050565b6107c481610724565b81146107cf57600080fd5b50565b6000813590506107e1816107bb565b92915050565b600080600060608486031215610800576107ff610758565b5b600061080e868287016107a6565b935050602061081f868287016107a6565b9250506040610830868287016107d2565b9150509250925092565b60008115159050919050565b61084f8161083a565b82525050565b600060208201905061086a6000830184610846565b92915050565b6000806040838503121561088757610886610758565b5b6000610895858286016107a6565b92505060206108a6858286016107d2565b9150509250929050565b600080604083850312156108c7576108c6610758565b5b60006108d5858286016107a6565b92505060206108e6858286016107a6565b9150509250929050565b60006020828403121561090657610905610758565b5b6000610914848285016107a6565b91505092915050565b7f4e487b7100000000000000000000000000000000000000000000000000000000600052602260045260246000fd5b6000600282049050600182168061096457607f821691505b6020821081036109775761097661091d565b5b50919050565b7f496e73756666696369656e742062616c616e63652e0000000000000000000000600082015250565b60006109b3601583610674565b91506109be8261097d565b602082019050919050565b600060208201905081810360008301526109e2816109a6565b9050919050565b7f4e487b7100000000000000000000000000000000000000000000000000000000600052601160045260246000fd5b6000610a2382610724565b9150610a2e83610724565b925082821015610a4157610a406109e9565b5b828203905092915050565b6000610a5782610724565b9150610a6283610724565b9250827fffffffffffffffffffffffffffffffffffffffffffffffffffffffffffffffff03821115610a9757610a966109e9565b5b82820190509291505056fea2646970667358221220e7ff608e40af194d5ed530a354776500990c57e59d74423fac90f02b48c5dae164736f6c634300080d0033",
  "immutableReferences": {},
  "source": "// SPDX-License-Identifier: MIT\npragma solidity >=0.4.22 <0.9.0;\n\ncontract Token{\n\n    string public name = \"dummy token\";\n    string public symbol = \"DUM\";\n    uint public totalSupply = 1000000000000000000000000; //1 million (plus 18 zeros)\n    uint public decimal = 18;\n\n    event Transfer(\n        address indexed _from,\n        address indexed _to,\n        uint _value\n    );\n\n    event Approve(\n        address indexed _owner,\n        address indexed _spender,\n        uint _value\n    );\n\n    mapping(address => uint) public balance;\n\n    //track the approwed allowance of a spender for every owner\n    mapping(address => mapping(address => uint)) public allowance;\n\n    constructor(){\n        balance[msg.sender] = totalSupply; //all the tokens are sent to the creator of SC\n    }\n\n    function transfer(address _to, uint _value) public returns(bool) {\n          require(balance[msg.sender] >= _value, \"Insufficient balance.\");\n          balance[msg.sender] -= _value;\n          balance[_to] += _value;\n\n          emit Transfer(msg.sender, _to, _value);\n          return true;\n    }\n\n    function transferFrom(address _from, address _to, uint _value) public returns(bool) {\n          require(balance[_from] >= _value, \"Insufficient balance.\");\n          balance[_from] -= _value;\n          balance[_to] += _value;\n\n          emit Transfer(_from, _to, _value);\n          return true;\n    }\n\n}",
  "sourcePath": "/Users/harshit/Documents/Cryptocurrencies/Staking App/staking_app/src/contracts/Token.sol",
  "compiler": {
    "name": "solc",
    "version": "0.8.13+commit.abaa5c0e.Emscripten.clang"
  },
  "schemaVersion": "3.4.7",
  "updatedAt": "2022-07-11T08:33:49.180Z",
  "networkType": "ethereum",
  "devdoc": {
    "kind": "dev",
    "methods": {},
    "version": 1
  },
  "userdoc": {
    "kind": "user",
    "methods": {},
    "version": 1
  }
}